{
  "contractName": "ERC20Pausable",
  "abi": [
    {
      "anonymous": false,
      "inputs": [
        {
          "indexed": true,
          "internalType": "address",
          "name": "owner",
          "type": "address"
        },
        {
          "indexed": true,
          "internalType": "address",
          "name": "spender",
          "type": "address"
        },
        {
          "indexed": false,
          "internalType": "uint256",
          "name": "value",
          "type": "uint256"
        }
      ],
      "name": "Approval",
      "type": "event"
    },
    {
      "anonymous": false,
      "inputs": [
        {
          "indexed": false,
          "internalType": "address",
          "name": "account",
          "type": "address"
        }
      ],
      "name": "Paused",
      "type": "event"
    },
    {
      "anonymous": false,
      "inputs": [
        {
          "indexed": true,
          "internalType": "address",
          "name": "account",
          "type": "address"
        }
      ],
      "name": "PauserAdded",
      "type": "event"
    },
    {
      "anonymous": false,
      "inputs": [
        {
          "indexed": true,
          "internalType": "address",
          "name": "account",
          "type": "address"
        }
      ],
      "name": "PauserRemoved",
      "type": "event"
    },
    {
      "anonymous": false,
      "inputs": [
        {
          "indexed": true,
          "internalType": "address",
          "name": "from",
          "type": "address"
        },
        {
          "indexed": true,
          "internalType": "address",
          "name": "to",
          "type": "address"
        },
        {
          "indexed": false,
          "internalType": "uint256",
          "name": "value",
          "type": "uint256"
        }
      ],
      "name": "Transfer",
      "type": "event"
    },
    {
      "anonymous": false,
      "inputs": [
        {
          "indexed": false,
          "internalType": "address",
          "name": "account",
          "type": "address"
        }
      ],
      "name": "Unpaused",
      "type": "event"
    },
    {
      "constant": false,
      "inputs": [
        {
          "internalType": "address",
          "name": "account",
          "type": "address"
        }
      ],
      "name": "addPauser",
      "outputs": [],
      "payable": false,
      "stateMutability": "nonpayable",
      "type": "function"
    },
    {
      "constant": true,
      "inputs": [
        {
          "internalType": "address",
          "name": "owner",
          "type": "address"
        },
        {
          "internalType": "address",
          "name": "spender",
          "type": "address"
        }
      ],
      "name": "allowance",
      "outputs": [
        {
          "internalType": "uint256",
          "name": "",
          "type": "uint256"
        }
      ],
      "payable": false,
      "stateMutability": "view",
      "type": "function"
    },
    {
      "constant": true,
      "inputs": [
        {
          "internalType": "address",
          "name": "owner",
          "type": "address"
        }
      ],
      "name": "balanceOf",
      "outputs": [
        {
          "internalType": "uint256",
          "name": "",
          "type": "uint256"
        }
      ],
      "payable": false,
      "stateMutability": "view",
      "type": "function"
    },
    {
      "constant": true,
      "inputs": [
        {
          "internalType": "address",
          "name": "account",
          "type": "address"
        }
      ],
      "name": "isPauser",
      "outputs": [
        {
          "internalType": "bool",
          "name": "",
          "type": "bool"
        }
      ],
      "payable": false,
      "stateMutability": "view",
      "type": "function"
    },
    {
      "constant": false,
      "inputs": [],
      "name": "pause",
      "outputs": [],
      "payable": false,
      "stateMutability": "nonpayable",
      "type": "function"
    },
    {
      "constant": true,
      "inputs": [],
      "name": "paused",
      "outputs": [
        {
          "internalType": "bool",
          "name": "",
          "type": "bool"
        }
      ],
      "payable": false,
      "stateMutability": "view",
      "type": "function"
    },
    {
      "constant": false,
      "inputs": [],
      "name": "renouncePauser",
      "outputs": [],
      "payable": false,
      "stateMutability": "nonpayable",
      "type": "function"
    },
    {
      "constant": true,
      "inputs": [],
      "name": "totalSupply",
      "outputs": [
        {
          "internalType": "uint256",
          "name": "",
          "type": "uint256"
        }
      ],
      "payable": false,
      "stateMutability": "view",
      "type": "function"
    },
    {
      "constant": false,
      "inputs": [],
      "name": "unpause",
      "outputs": [],
      "payable": false,
      "stateMutability": "nonpayable",
      "type": "function"
    },
    {
      "constant": false,
      "inputs": [
        {
          "internalType": "address",
          "name": "to",
          "type": "address"
        },
        {
          "internalType": "uint256",
          "name": "value",
          "type": "uint256"
        }
      ],
      "name": "transfer",
      "outputs": [
        {
          "internalType": "bool",
          "name": "",
          "type": "bool"
        }
      ],
      "payable": false,
      "stateMutability": "nonpayable",
      "type": "function"
    },
    {
      "constant": false,
      "inputs": [
        {
          "internalType": "address",
          "name": "from",
          "type": "address"
        },
        {
          "internalType": "address",
          "name": "to",
          "type": "address"
        },
        {
          "internalType": "uint256",
          "name": "value",
          "type": "uint256"
        }
      ],
      "name": "transferFrom",
      "outputs": [
        {
          "internalType": "bool",
          "name": "",
          "type": "bool"
        }
      ],
      "payable": false,
      "stateMutability": "nonpayable",
      "type": "function"
    },
    {
      "constant": false,
      "inputs": [
        {
          "internalType": "address",
          "name": "spender",
          "type": "address"
        },
        {
          "internalType": "uint256",
          "name": "value",
          "type": "uint256"
        }
      ],
      "name": "approve",
      "outputs": [
        {
          "internalType": "bool",
          "name": "",
          "type": "bool"
        }
      ],
      "payable": false,
      "stateMutability": "nonpayable",
      "type": "function"
    },
    {
      "constant": false,
      "inputs": [
        {
          "internalType": "address",
          "name": "spender",
          "type": "address"
        },
        {
          "internalType": "uint256",
          "name": "addedValue",
          "type": "uint256"
        }
      ],
      "name": "increaseAllowance",
      "outputs": [
        {
          "internalType": "bool",
          "name": "success",
          "type": "bool"
        }
      ],
      "payable": false,
      "stateMutability": "nonpayable",
      "type": "function"
    },
    {
      "constant": false,
      "inputs": [
        {
          "internalType": "address",
          "name": "spender",
          "type": "address"
        },
        {
          "internalType": "uint256",
          "name": "subtractedValue",
          "type": "uint256"
        }
      ],
      "name": "decreaseAllowance",
      "outputs": [
        {
          "internalType": "bool",
          "name": "success",
          "type": "bool"
        }
      ],
      "payable": false,
      "stateMutability": "nonpayable",
      "type": "function"
    }
  ],
  "bytecode": "0x6080604052610016336001600160e01b0361002516565b6004805460ff191690556100fe565b61003d81600361007460201b6109121790919060201c565b6040516001600160a01b038216907f6719d08c1888103bea251a4ed56406bd0c3e69723c8a1686e017e7bbe159b6f890600090a250565b6001600160a01b03811661008757600080fd5b61009a82826001600160e01b036100c916565b156100a457600080fd5b6001600160a01b0316600090815260209190915260409020805460ff19166001179055565b60006001600160a01b0382166100de57600080fd5b506001600160a01b03166000908152602091909152604090205460ff1690565b6109938061010d6000396000f3fe608060405234801561001057600080fd5b50600436106100ea5760003560e01c80636ef8d66d1161008c5780638456cb59116100665780638456cb5914610237578063a457c2d71461023f578063a9059cbb1461026b578063dd62ed3e14610297576100ea565b80636ef8d66d146101e357806370a08231146101eb57806382dc1ec414610211576100ea565b806339509351116100c8578063395093511461017f5780633f4ba83a146101ab57806346fbf68e146101b55780635c975abb146101db576100ea565b8063095ea7b3146100ef57806318160ddd1461012f57806323b872dd14610149575b600080fd5b61011b6004803603604081101561010557600080fd5b506001600160a01b0381351690602001356102c5565b604080519115158252519081900360200190f35b6101376102e9565b60408051918252519081900360200190f35b61011b6004803603606081101561015f57600080fd5b506001600160a01b038135811691602081013590911690604001356102ef565b61011b6004803603604081101561019557600080fd5b506001600160a01b038135169060200135610315565b6101b3610332565b005b61011b600480360360208110156101cb57600080fd5b50356001600160a01b0316610392565b61011b6103ab565b6101b36103b4565b6101376004803603602081101561020157600080fd5b50356001600160a01b03166103bf565b6101b36004803603602081101561022757600080fd5b50356001600160a01b03166103da565b6101b36103f8565b61011b6004803603604081101561025557600080fd5b506001600160a01b03813516906020013561045c565b61011b6004803603604081101561028157600080fd5b506001600160a01b038135169060200135610479565b610137600480360360408110156102ad57600080fd5b506001600160a01b0381358116916020013516610496565b60045460009060ff16156102d857600080fd5b6102e283836104c1565b9392505050565b60025490565b60045460009060ff161561030257600080fd5b61030d84848461053d565b949350505050565b60045460009060ff161561032857600080fd5b6102e28383610606565b61033b33610392565b61034457600080fd5b60045460ff1661035357600080fd5b6004805460ff191690556040805133815290517f5db9ee0a495bf2e6ff9c91a7834c1ba4fdd244a5e8aa4e537bd38aeae4b073aa9181900360200190a1565b60006103a560038363ffffffff6106b416565b92915050565b60045460ff1690565b6103bd336106e9565b565b6001600160a01b031660009081526020819052604090205490565b6103e333610392565b6103ec57600080fd5b6103f581610731565b50565b61040133610392565b61040a57600080fd5b60045460ff161561041a57600080fd5b6004805460ff191660011790556040805133815290517f62e78cea01bee320cd4e420270b5ea74000d11b0c9f74754ebdbfc544b05a2589181900360200190a1565b60045460009060ff161561046f57600080fd5b6102e28383610779565b60045460009060ff161561048c57600080fd5b6102e283836107c2565b6001600160a01b03918216600090815260016020908152604080832093909416825291909152205490565b60006001600160a01b0383166104d657600080fd5b3360008181526001602090815260408083206001600160a01b03881680855290835292819020869055805186815290519293927f8c5be1e5ebec7d5bd14f71427d1e84f3dd0314c0f7b2291e5b200ac8c7c3b925929181900390910190a350600192915050565b6001600160a01b0383166000908152600160209081526040808320338452909152812054610571908363ffffffff6107d816565b6001600160a01b03851660009081526001602090815260408083203384529091529020556105a08484846107ed565b6001600160a01b0384166000818152600160209081526040808320338085529083529281902054815190815290519293927f8c5be1e5ebec7d5bd14f71427d1e84f3dd0314c0f7b2291e5b200ac8c7c3b925929181900390910190a35060019392505050565b60006001600160a01b03831661061b57600080fd5b3360009081526001602090815260408083206001600160a01b038716845290915290205461064f908363ffffffff6108b816565b3360008181526001602090815260408083206001600160a01b0389168085529083529281902085905580519485525191937f8c5be1e5ebec7d5bd14f71427d1e84f3dd0314c0f7b2291e5b200ac8c7c3b925929081900390910190a350600192915050565b60006001600160a01b0382166106c957600080fd5b506001600160a01b03166000908152602091909152604090205460ff1690565b6106fa60038263ffffffff6108ca16565b6040516001600160a01b038216907fcd265ebaf09df2871cc7bd4133404a235ba12eff2041bb89d9c714a2621c7c7e90600090a250565b61074260038263ffffffff61091216565b6040516001600160a01b038216907f6719d08c1888103bea251a4ed56406bd0c3e69723c8a1686e017e7bbe159b6f890600090a250565b60006001600160a01b03831661078e57600080fd5b3360009081526001602090815260408083206001600160a01b038716845290915290205461064f908363ffffffff6107d816565b60006107cf3384846107ed565b50600192915050565b6000828211156107e757600080fd5b50900390565b6001600160a01b03821661080057600080fd5b6001600160a01b038316600090815260208190526040902054610829908263ffffffff6107d816565b6001600160a01b03808516600090815260208190526040808220939093559084168152205461085e908263ffffffff6108b816565b6001600160a01b038084166000818152602081815260409182902094909455805185815290519193928716927fddf252ad1be2c89b69c2b068fc378daa952ba7f163c4a11628f55a4df523b3ef92918290030190a3505050565b6000828201838110156102e257600080fd5b6001600160a01b0381166108dd57600080fd5b6108e782826106b4565b6108f057600080fd5b6001600160a01b0316600090815260209190915260409020805460ff19169055565b6001600160a01b03811661092557600080fd5b61092f82826106b4565b1561093957600080fd5b6001600160a01b0316600090815260209190915260409020805460ff1916600117905556fea265627a7a723158200733ce8d77659ecff39cf10f87c43bc3614068d5eb67f156cf3742bd3eb0a0dd64736f6c63430005100032",
  "source": "pragma solidity ^0.5.0;\r\n\r\nimport \"./ERC20.sol\";\r\nimport \"../../lifecycle/Pausable.sol\";\r\n\r\n/**\r\n * @title Pausable token\r\n * @dev ERC20 modified with pausable transfers.\r\n **/\r\ncontract ERC20Pausable is ERC20, Pausable {\r\n    function transfer(address to, uint256 value) public whenNotPaused returns (bool) {\r\n        return super.transfer(to, value);\r\n    }\r\n\r\n    function transferFrom(address from, address to, uint256 value) public whenNotPaused returns (bool) {\r\n        return super.transferFrom(from, to, value);\r\n    }\r\n\r\n    function approve(address spender, uint256 value) public whenNotPaused returns (bool) {\r\n        return super.approve(spender, value);\r\n    }\r\n\r\n    function increaseAllowance(address spender, uint addedValue) public whenNotPaused returns (bool success) {\r\n        return super.increaseAllowance(spender, addedValue);\r\n    }\r\n\r\n    function decreaseAllowance(address spender, uint subtractedValue) public whenNotPaused returns (bool success) {\r\n        return super.decreaseAllowance(spender, subtractedValue);\r\n    }\r\n}\r\n",
  "sourcePath": "E:/general_work/guru/202104/nftphoto/NFT-based-photo-marketplace (2)/contracts/openzeppelin-solidity/contracts/token/ERC20/ERC20Pausable.sol",
  "compiler": {
    "name": "solc",
    "version": "0.5.16+commit.9c3226ce.Emscripten.clang"
  },
  "schemaVersion": "3.3.4",
  "updatedAt": "2021-04-20T07:03:58.883Z",
  "devdoc": {
    "details": "ERC20 modified with pausable transfers.*",
    "methods": {
      "allowance(address,address)": {
        "details": "Function to check the amount of tokens that an owner allowed to a spender.",
        "params": {
          "owner": "address The address which owns the funds.",
          "spender": "address The address which will spend the funds."
        },
        "return": "A uint256 specifying the amount of tokens still available for the spender."
      },
      "balanceOf(address)": {
        "details": "Gets the balance of the specified address.",
        "params": {
          "owner": "The address to query the balance of."
        },
        "return": "An uint256 representing the amount owned by the passed address."
      },
      "pause()": {
        "details": "called by the owner to pause, triggers stopped state"
      },
      "paused()": {
        "return": "true if the contract is paused, false otherwise."
      },
      "totalSupply()": {
        "details": "Total number of tokens in existence"
      },
      "unpause()": {
        "details": "called by the owner to unpause, returns to normal state"
      }
    },
    "title": "Pausable token"
  },
  "userdoc": {
    "methods": {}
  }
}