{
  "contractName": "ERC721Holder",
  "abi": [
    {
      "constant": false,
      "inputs": [
        {
          "internalType": "address",
          "name": "",
          "type": "address"
        },
        {
          "internalType": "address",
          "name": "",
          "type": "address"
        },
        {
          "internalType": "uint256",
          "name": "",
          "type": "uint256"
        },
        {
          "internalType": "bytes",
          "name": "",
          "type": "bytes"
        }
      ],
      "name": "onERC721Received",
      "outputs": [
        {
          "internalType": "bytes4",
          "name": "",
          "type": "bytes4"
        }
      ],
      "payable": false,
      "stateMutability": "nonpayable",
      "type": "function"
    }
  ],
  "bytecode": "0x608060405234801561001057600080fd5b50610158806100206000396000f3fe608060405234801561001057600080fd5b506004361061002b5760003560e01c8063150b7a0214610030575b600080fd5b6100f66004803603608081101561004657600080fd5b6001600160a01b0382358116926020810135909116916040820135919081019060808101606082013564010000000081111561008157600080fd5b82018360208201111561009357600080fd5b803590602001918460018302840111640100000000831117156100b557600080fd5b91908080601f016020809104026020016040519081016040528093929190818152602001838380828437600092019190915250929550610113945050505050565b604080516001600160e01b03199092168252519081900360200190f35b630a85bd0160e11b94935050505056fea265627a7a723158202047096fd66799d26636bcb967f0d804edbbe9d8f1f8fdac0a860d247627540364736f6c63430005100032",
  "source": "pragma solidity ^0.5.0;\r\n\r\nimport \"./IERC721Receiver.sol\";\r\n\r\ncontract ERC721Holder is IERC721Receiver {\r\n    function onERC721Received(address, address, uint256, bytes memory) public returns (bytes4) {\r\n        return this.onERC721Received.selector;\r\n    }\r\n}\r\n",
  "sourcePath": "E:/general_work/guru/202104/nftphoto/NFT-based-photo-marketplace (2)/contracts/openzeppelin-solidity/contracts/token/ERC721/ERC721Holder.sol",
  "compiler": {
    "name": "solc",
    "version": "0.5.16+commit.9c3226ce.Emscripten.clang"
  },
  "schemaVersion": "3.3.4",
  "updatedAt": "2021-04-20T07:03:58.920Z",
  "devdoc": {
    "methods": {}
  },
  "userdoc": {
    "methods": {}
  }
}