{
  "contractName": "PhotoNFTDataStorages",
  "abi": [
    {
      "constant": true,
      "inputs": [
        {
          "internalType": "uint256",
          "name": "",
          "type": "uint256"
        }
      ],
      "name": "photos",
      "outputs": [
        {
          "internalType": "contract PhotoNFT",
          "name": "photoNFT",
          "type": "address"
        },
        {
          "internalType": "string",
          "name": "photoNFTName",
          "type": "string"
        },
        {
          "internalType": "string",
          "name": "photoNFTSymbol",
          "type": "string"
        },
        {
          "internalType": "address",
          "name": "ownerAddress",
          "type": "address"
        },
        {
          "internalType": "uint256",
          "name": "photoPrice",
          "type": "uint256"
        },
        {
          "internalType": "string",
          "name": "ipfsHashOfPhoto",
          "type": "string"
        },
        {
          "internalType": "string",
          "name": "status",
          "type": "string"
        },
        {
          "internalType": "uint256",
          "name": "reputation",
          "type": "uint256"
        }
      ],
      "payable": false,
      "stateMutability": "view",
      "type": "function"
    }
  ],
  "bytecode": "0x608060405234801561001057600080fd5b506104fe806100206000396000f3fe608060405234801561001057600080fd5b506004361061002b5760003560e01c8063af2a5d6f14610030575b600080fd5b61004d6004803603602081101561004657600080fd5b5035610237565b60405180896001600160a01b03166001600160a01b031681526020018060200180602001886001600160a01b03166001600160a01b03168152602001878152602001806020018060200186815260200185810385528c818151815260200191508051906020019080838360005b838110156100d25781810151838201526020016100ba565b50505050905090810190601f1680156100ff5780820380516001836020036101000a031916815260200191505b5085810384528b5181528b516020918201918d019080838360005b8381101561013257818101518382015260200161011a565b50505050905090810190601f16801561015f5780820380516001836020036101000a031916815260200191505b5085810383528851815288516020918201918a019080838360005b8381101561019257818101518382015260200161017a565b50505050905090810190601f1680156101bf5780820380516001836020036101000a031916815260200191505b50858103825287518152875160209182019189019080838360005b838110156101f25781810151838201526020016101da565b50505050905090810190601f16801561021f5780820380516001836020036101000a031916815260200191505b509c5050505050505050505050505060405180910390f35b6000818154811061024457fe5b600091825260209182902060089091020180546001808301805460408051601f60026000199685161561010002969096019093169490940491820187900487028401870190528083526001600160a01b0390931695509293909291908301828280156102f15780601f106102c6576101008083540402835291602001916102f1565b820191906000526020600020905b8154815290600101906020018083116102d457829003601f168201915b50505060028085018054604080516020601f60001961010060018716150201909416959095049283018590048502810185019091528181529596959450909250908301828280156103835780601f1061035857610100808354040283529160200191610383565b820191906000526020600020905b81548152906001019060200180831161036657829003601f168201915b505050506003830154600484015460058501805460408051602060026101006001861615026000190190941693909304601f810184900484028201840190925281815296976001600160a01b0390951696939550908301828280156104295780601f106103fe57610100808354040283529160200191610429565b820191906000526020600020905b81548152906001019060200180831161040c57829003601f168201915b5050505060068301805460408051602060026001851615610100026000190190941693909304601f81018490048402820184019092528181529495949350908301828280156104b95780601f1061048e576101008083540402835291602001916104b9565b820191906000526020600020905b81548152906001019060200180831161049c57829003601f168201915b505050505090806007015490508856fea265627a7a72315820dd2bb66f78f0c390132933686b13a663e0ccb3feed7b728ef2cd8aa82024cd9a64736f6c63430005100032",
  "source": "pragma solidity ^0.5.0;\r\n\r\nimport { PhotoNFTDataObjects } from \"./PhotoNFTDataObjects.sol\";\r\n\r\n\r\n// shared storage\r\ncontract PhotoNFTDataStorages is PhotoNFTDataObjects {\r\n\r\n    Photo[] public photos;\r\n\r\n}\r\n\r\n",
  "sourcePath": "E:/general_work/guru/202104/nftphoto/NFT-based-photo-marketplace (2)/contracts/photo-nft-data/commons/PhotoNFTDataStorages.sol",
  "compiler": {
    "name": "solc",
    "version": "0.5.16+commit.9c3226ce.Emscripten.clang"
  },
  "schemaVersion": "3.3.4",
  "updatedAt": "2021-04-27T21:35:55.754Z",
  "devdoc": {
    "methods": {}
  },
  "userdoc": {
    "methods": {}
  }
}