{
  "contractName": "PhotoNFTData",
  "abi": [
    {
      "inputs": [],
      "payable": false,
      "stateMutability": "nonpayable",
      "type": "constructor"
    },
    {
      "constant": true,
      "inputs": [
        {
          "internalType": "uint256",
          "name": "",
          "type": "uint256"
        }
      ],
      "name": "photoAddresses",
      "outputs": [
        {
          "internalType": "address",
          "name": "",
          "type": "address"
        }
      ],
      "payable": false,
      "stateMutability": "view",
      "type": "function"
    },
    {
      "constant": true,
      "inputs": [
        {
          "internalType": "uint256",
          "name": "",
          "type": "uint256"
        }
      ],
      "name": "photos",
      "outputs": [
        {
          "internalType": "contract PhotoNFT",
          "name": "photoNFT",
          "type": "address"
        },
        {
          "internalType": "string",
          "name": "photoNFTName",
          "type": "string"
        },
        {
          "internalType": "string",
          "name": "photoNFTSymbol",
          "type": "string"
        },
        {
          "internalType": "address",
          "name": "ownerAddress",
          "type": "address"
        },
        {
          "internalType": "uint256",
          "name": "photoPrice",
          "type": "uint256"
        },
        {
          "internalType": "string",
          "name": "ipfsHashOfPhoto",
          "type": "string"
        },
        {
          "internalType": "string",
          "name": "status",
          "type": "string"
        },
        {
          "internalType": "uint256",
          "name": "reputation",
          "type": "uint256"
        }
      ],
      "payable": false,
      "stateMutability": "view",
      "type": "function"
    },
    {
      "constant": false,
      "inputs": [
        {
          "internalType": "address[]",
          "name": "_photoAddresses",
          "type": "address[]"
        },
        {
          "internalType": "contract PhotoNFT",
          "name": "_photoNFT",
          "type": "address"
        },
        {
          "internalType": "string",
          "name": "_photoNFTName",
          "type": "string"
        },
        {
          "internalType": "string",
          "name": "_photoNFTSymbol",
          "type": "string"
        },
        {
          "internalType": "address",
          "name": "_ownerAddress",
          "type": "address"
        },
        {
          "internalType": "uint256",
          "name": "_photoPrice",
          "type": "uint256"
        },
        {
          "internalType": "string",
          "name": "_ipfsHashOfPhoto",
          "type": "string"
        }
      ],
      "name": "saveMetadataOfPhotoNFT",
      "outputs": [
        {
          "internalType": "bool",
          "name": "",
          "type": "bool"
        }
      ],
      "payable": false,
      "stateMutability": "nonpayable",
      "type": "function"
    },
    {
      "constant": false,
      "inputs": [
        {
          "internalType": "contract PhotoNFT",
          "name": "_photoNFT",
          "type": "address"
        },
        {
          "internalType": "address",
          "name": "_newOwner",
          "type": "address"
        }
      ],
      "name": "updateOwnerOfPhotoNFT",
      "outputs": [
        {
          "internalType": "bool",
          "name": "",
          "type": "bool"
        }
      ],
      "payable": false,
      "stateMutability": "nonpayable",
      "type": "function"
    },
    {
      "constant": false,
      "inputs": [
        {
          "internalType": "contract PhotoNFT",
          "name": "_photoNFT",
          "type": "address"
        },
        {
          "internalType": "string",
          "name": "_newStatus",
          "type": "string"
        }
      ],
      "name": "updateStatus",
      "outputs": [
        {
          "internalType": "bool",
          "name": "",
          "type": "bool"
        }
      ],
      "payable": false,
      "stateMutability": "nonpayable",
      "type": "function"
    },
    {
      "constant": true,
      "inputs": [
        {
          "internalType": "uint256",
          "name": "index",
          "type": "uint256"
        }
      ],
      "name": "getPhoto",
      "outputs": [
        {
          "components": [
            {
              "internalType": "contract PhotoNFT",
              "name": "photoNFT",
              "type": "address"
            },
            {
              "internalType": "string",
              "name": "photoNFTName",
              "type": "string"
            },
            {
              "internalType": "string",
              "name": "photoNFTSymbol",
              "type": "string"
            },
            {
              "internalType": "address",
              "name": "ownerAddress",
              "type": "address"
            },
            {
              "internalType": "uint256",
              "name": "photoPrice",
              "type": "uint256"
            },
            {
              "internalType": "string",
              "name": "ipfsHashOfPhoto",
              "type": "string"
            },
            {
              "internalType": "string",
              "name": "status",
              "type": "string"
            },
            {
              "internalType": "uint256",
              "name": "reputation",
              "type": "uint256"
            }
          ],
          "internalType": "struct PhotoNFTDataObjects.Photo",
          "name": "_photo",
          "type": "tuple"
        }
      ],
      "payable": false,
      "stateMutability": "view",
      "type": "function"
    },
    {
      "constant": true,
      "inputs": [
        {
          "internalType": "contract PhotoNFT",
          "name": "photoNFT",
          "type": "address"
        }
      ],
      "name": "getPhotoIndex",
      "outputs": [
        {
          "internalType": "uint256",
          "name": "_photoIndex",
          "type": "uint256"
        }
      ],
      "payable": false,
      "stateMutability": "view",
      "type": "function"
    },
    {
      "constant": true,
      "inputs": [
        {
          "internalType": "contract PhotoNFT",
          "name": "photoNFT",
          "type": "address"
        }
      ],
      "name": "getPhotoByNFTAddress",
      "outputs": [
        {
          "components": [
            {
              "internalType": "contract PhotoNFT",
              "name": "photoNFT",
              "type": "address"
            },
            {
              "internalType": "string",
              "name": "photoNFTName",
              "type": "string"
            },
            {
              "internalType": "string",
              "name": "photoNFTSymbol",
              "type": "string"
            },
            {
              "internalType": "address",
              "name": "ownerAddress",
              "type": "address"
            },
            {
              "internalType": "uint256",
              "name": "photoPrice",
              "type": "uint256"
            },
            {
              "internalType": "string",
              "name": "ipfsHashOfPhoto",
              "type": "string"
            },
            {
              "internalType": "string",
              "name": "status",
              "type": "string"
            },
            {
              "internalType": "uint256",
              "name": "reputation",
              "type": "uint256"
            }
          ],
          "internalType": "struct PhotoNFTDataObjects.Photo",
          "name": "_photo",
          "type": "tuple"
        }
      ],
      "payable": false,
      "stateMutability": "view",
      "type": "function"
    },
    {
      "constant": true,
      "inputs": [],
      "name": "getAllPhotos",
      "outputs": [
        {
          "components": [
            {
              "internalType": "contract PhotoNFT",
              "name": "photoNFT",
              "type": "address"
            },
            {
              "internalType": "string",
              "name": "photoNFTName",
              "type": "string"
            },
            {
              "internalType": "string",
              "name": "photoNFTSymbol",
              "type": "string"
            },
            {
              "internalType": "address",
              "name": "ownerAddress",
              "type": "address"
            },
            {
              "internalType": "uint256",
              "name": "photoPrice",
              "type": "uint256"
            },
            {
              "internalType": "string",
              "name": "ipfsHashOfPhoto",
              "type": "string"
            },
            {
              "internalType": "string",
              "name": "status",
              "type": "string"
            },
            {
              "internalType": "uint256",
              "name": "reputation",
              "type": "uint256"
            }
          ],
          "internalType": "struct PhotoNFTDataObjects.Photo[]",
          "name": "_photos",
          "type": "tuple[]"
        }
      ],
      "payable": false,
      "stateMutability": "view",
      "type": "function"
    }
  ],
  "bytecode": "0x608060405234801561001057600080fd5b5061184e806100206000396000f3fe608060405234801561001057600080fd5b50600436106100935760003560e01c80637fd6c405116100665780637fd6c405146101095780639bab7f4a14610129578063af2a5d6f1461013c578063b6be128a14610163578063dc0985c31461017657610093565b80630633d553146100985780631f4342be146100c157806348c31171146100e15780637cb1479b146100f6575b600080fd5b6100ab6100a6366004611264565b610196565b6040516100b89190611622565b60405180910390f35b6100d46100cf36600461135f565b61033c565b6040516100b891906116e4565b6100e9610392565b6040516100b89190611611565b6100ab610104366004611385565b61067e565b61011c61011736600461135f565b61070e565b6040516100b891906116d3565b6100ab6101373660046113bf565b610a2e565b61014f61014a366004611407565b610a7b565b6040516100b8989796959493929190611630565b61011c610171366004611407565b610d0d565b610189610184366004611407565b610fdd565b6040516100b89190611603565b60006101a0611004565b5060408051610100810182526001600160a01b03898116825260208083018a81528385018a905288831660608501526080840188905260a084018790528451808601909552600485526327b832b760e11b8583015260c0840194909452600060e0840181905280546001810180835591805284517f290decd9548b62a8d60345a988386fc84ba6bc95484008f6362f93160ef3e563600890920291820180546001600160a01b031916919095161784559451805194959194869493610289937f290decd9548b62a8d60345a988386fc84ba6bc95484008f6362f93160ef3e5640192019061105b565b50604082015180516102a591600284019160209091019061105b565b5060608201516003820180546001600160a01b0319166001600160a01b039092169190911790556080820151600482015560a082015180516102f191600584019160209091019061105b565b5060c0820151805161030d91600684019160209091019061105b565b5060e0919091015160079091015550885161032f9060019060208c01906110d9565b5050979650505050505050565b60008181805b60015481101561038a57826001600160a01b03166001828154811061036357fe5b6000918252602090912001546001600160a01b03161415610382578091505b600101610342565b509392505050565b60606000805480602002602001604051908101604052809291908181526020016000905b828210156106745760008481526020908190206040805161010080820183526008870290930180546001600160a01b03168252600180820180548551600293821615909702600019011691909104601f810187900487028601870190945283855291949093858201939092918301828280156104735780601f1061044857610100808354040283529160200191610473565b820191906000526020600020905b81548152906001019060200180831161045657829003601f168201915b5050509183525050600282810180546040805160206001841615610100026000190190931694909404601f810183900483028501830190915280845293810193908301828280156105055780601f106104da57610100808354040283529160200191610505565b820191906000526020600020905b8154815290600101906020018083116104e857829003601f168201915b505050918352505060038201546001600160a01b03166020808301919091526004830154604080840191909152600584018054825160026101006001841615026000190190921691909104601f8101859004850282018501909352828152606090940193929091908301828280156105be5780601f10610593576101008083540402835291602001916105be565b820191906000526020600020905b8154815290600101906020018083116105a157829003601f168201915b505050918352505060068201805460408051602060026001851615610100026000190190941693909304601f81018490048402820184019092528181529382019392918301828280156106525780601f1061062757610100808354040283529160200191610652565b820191906000526020600020905b81548152906001019060200180831161063557829003601f168201915b50505050508152602001600782015481525050815260200190600101906103b6565b5050505090505b90565b60008061068a8461033c565b9050600080828154811061069a57fe5b9060005260206000209060080201905060006001600160a01b0316846001600160a01b031614156106e65760405162461bcd60e51b81526004016106dd906116c3565b60405180910390fd5b60030180546001600160a01b0319166001600160a01b03949094169390931790925592915050565b610716611004565b816000805b60015481101561076357826001600160a01b03166001828154811061073c57fe5b6000918252602090912001546001600160a01b0316141561075b578091505b60010161071b565b5061076c611004565b6000828154811061077957fe5b600091825260209182902060408051610100808201835260089490940290920180546001600160a01b03168352600180820180548451600293821615909702600019011691909104601f81018790048702860187019093528285529294909385820193909290918301828280156108315780601f1061080657610100808354040283529160200191610831565b820191906000526020600020905b81548152906001019060200180831161081457829003601f168201915b5050509183525050600282810180546040805160206001841615610100026000190190931694909404601f810183900483028501830190915280845293810193908301828280156108c35780601f10610898576101008083540402835291602001916108c3565b820191906000526020600020905b8154815290600101906020018083116108a657829003601f168201915b505050918352505060038201546001600160a01b03166020808301919091526004830154604080840191909152600584018054825160026101006001841615026000190190921691909104601f81018590048502820185019093528281526060909401939290919083018282801561097c5780601f106109515761010080835404028352916020019161097c565b820191906000526020600020905b81548152906001019060200180831161095f57829003601f168201915b505050918352505060068201805460408051602060026001851615610100026000190190941693909304601f8101849004840282018401909252818152938201939291830182828015610a105780601f106109e557610100808354040283529160200191610a10565b820191906000526020600020905b8154815290600101906020018083116109f357829003601f168201915b50505091835250506007919091015460209091015295945050505050565b600080610a3a8461033c565b90506000808281548110610a4a57fe5b9060005260206000209060080201905083816006019080519060200190610a7292919061105b565b50505092915050565b60008181548110610a8857fe5b600091825260209182902060089091020180546001808301805460408051601f60026000199685161561010002969096019093169490940491820187900487028401870190528083526001600160a01b039093169550929390929190830182828015610b355780601f10610b0a57610100808354040283529160200191610b35565b820191906000526020600020905b815481529060010190602001808311610b1857829003601f168201915b50505060028085018054604080516020601f6000196101006001871615020190941695909504928301859004850281018501909152818152959695945090925090830182828015610bc75780601f10610b9c57610100808354040283529160200191610bc7565b820191906000526020600020905b815481529060010190602001808311610baa57829003601f168201915b505050506003830154600484015460058501805460408051602060026101006001861615026000190190941693909304601f810184900484028201840190925281815296976001600160a01b039095169693955090830182828015610c6d5780601f10610c4257610100808354040283529160200191610c6d565b820191906000526020600020905b815481529060010190602001808311610c5057829003601f168201915b5050505060068301805460408051602060026001851615610100026000190190941693909304601f8101849004840282018401909252818152949594935090830182828015610cfd5780601f10610cd257610100808354040283529160200191610cfd565b820191906000526020600020905b815481529060010190602001808311610ce057829003601f168201915b5050505050908060070154905088565b610d15611004565b610d1d611004565b60008381548110610d2a57fe5b600091825260209182902060408051610100808201835260089490940290920180546001600160a01b03168352600180820180548451600293821615909702600019011691909104601f8101879004870286018701909352828552929490938582019390929091830182828015610de25780601f10610db757610100808354040283529160200191610de2565b820191906000526020600020905b815481529060010190602001808311610dc557829003601f168201915b5050509183525050600282810180546040805160206001841615610100026000190190931694909404601f81018390048302850183019091528084529381019390830182828015610e745780601f10610e4957610100808354040283529160200191610e74565b820191906000526020600020905b815481529060010190602001808311610e5757829003601f168201915b505050918352505060038201546001600160a01b03166020808301919091526004830154604080840191909152600584018054825160026101006001841615026000190190921691909104601f810185900485028201850190935282815260609094019392909190830182828015610f2d5780601f10610f0257610100808354040283529160200191610f2d565b820191906000526020600020905b815481529060010190602001808311610f1057829003601f168201915b505050918352505060068201805460408051602060026001851615610100026000190190941693909304601f8101849004840282018401909252818152938201939291830182828015610fc15780601f10610f9657610100808354040283529160200191610fc1565b820191906000526020600020905b815481529060010190602001808311610fa457829003601f168201915b5050509183525050600791909101546020909101529392505050565b60018181548110610fea57fe5b6000918252602090912001546001600160a01b0316905081565b60405180610100016040528060006001600160a01b03168152602001606081526020016060815260200160006001600160a01b03168152602001600081526020016060815260200160608152602001600081525090565b828054600181600116156101000203166002900490600052602060002090601f016020900481019282601f1061109c57805160ff19168380011785556110c9565b828001600101855582156110c9579182015b828111156110c95782518255916020019190600101906110ae565b506110d592915061113a565b5090565b82805482825590600052602060002090810192821561112e579160200282015b8281111561112e57825182546001600160a01b0319166001600160a01b039091161782556020909201916001909101906110f9565b506110d5929150611154565b61067b91905b808211156110d55760008155600101611140565b61067b91905b808211156110d55780546001600160a01b031916815560010161115a565b8035611183816117e2565b92915050565b600082601f83011261119a57600080fd5b81356111ad6111a882611719565b6116f2565b915081818352602084019350602081019050838560208402820111156111d257600080fd5b60005b838110156111fe57816111e88882611178565b84525060209283019291909101906001016111d5565b5050505092915050565b8035611183816117f9565b600082601f83011261122457600080fd5b81356112326111a88261173a565b9150808252602083016020830185838301111561124e57600080fd5b610a7283828461179c565b803561118381611802565b600080600080600080600060e0888a03121561127f57600080fd5b873567ffffffffffffffff81111561129657600080fd5b6112a28a828b01611189565b97505060206112b38a828b01611208565b965050604088013567ffffffffffffffff8111156112d057600080fd5b6112dc8a828b01611213565b955050606088013567ffffffffffffffff8111156112f957600080fd5b6113058a828b01611213565b94505060806113168a828b01611178565b93505060a06113278a828b01611259565b92505060c088013567ffffffffffffffff81111561134457600080fd5b6113508a828b01611213565b91505092959891949750929550565b60006020828403121561137157600080fd5b600061137d8484611208565b949350505050565b6000806040838503121561139857600080fd5b60006113a48585611208565b92505060206113b585828601611178565b9150509250929050565b600080604083850312156113d257600080fd5b60006113de8585611208565b925050602083013567ffffffffffffffff8111156113fb57600080fd5b6113b585828601611213565b60006020828403121561141957600080fd5b600061137d8484611259565b60006114318383611548565b9392505050565b61144181611775565b82525050565b600061145282611768565b61145c818561176c565b93508360208202850161146e85611762565b8060005b858110156114a8578484038952815161148b8582611425565b945061149683611762565b60209a909a0199925050600101611472565b5091979650505050505050565b61144181611780565b61144181611785565b60006114d282611768565b6114dc818561176c565b93506114ec8185602086016117a8565b6114f5816117d8565b9093019392505050565b600061150c60278361176c565b7f41206e6577206f776e657220616464726573732073686f756c64206265206e6f8152667420656d70747960c81b602082015260400192915050565b805160009061010084019061155d85826114be565b506020830151848203602086015261157582826114c7565b9150506040830151848203604086015261158f82826114c7565b91505060608301516115a46060860182611438565b5060808301516115b760808601826115fa565b5060a083015184820360a08601526115cf82826114c7565b91505060c083015184820360c08601526115e982826114c7565b91505060e083015161038a60e08601825b6114418161067b565b602081016111838284611438565b602080825281016114318184611447565b6020810161118382846114b5565b610100810161163f828b6114be565b8181036020830152611651818a6114c7565b9050818103604083015261166581896114c7565b90506116746060830188611438565b61168160808301876115fa565b81810360a083015261169381866114c7565b905081810360c08301526116a781856114c7565b90506116b660e08301846115fa565b9998505050505050505050565b60208082528101611183816114ff565b602080825281016114318184611548565b6020810161118382846115fa565b60405181810167ffffffffffffffff8111828210171561171157600080fd5b604052919050565b600067ffffffffffffffff82111561173057600080fd5b5060209081020190565b600067ffffffffffffffff82111561175157600080fd5b506020601f91909101601f19160190565b60200190565b5190565b90815260200190565b600061118382611790565b151590565b600061118382611775565b6001600160a01b031690565b82818337506000910152565b60005b838110156117c35781810151838201526020016117ab565b838111156117d2576000848401525b50505050565b601f01601f191690565b6117eb81611775565b81146117f657600080fd5b50565b6117eb81611785565b6117eb8161067b56fea365627a7a72315820d7699639ac6ea1d6b4ed5e0314019b53b2a89a191b440075fcf8bf58ba19c5946c6578706572696d656e74616cf564736f6c63430005100040",
  "source": "pragma solidity ^0.5.16;\r\npragma experimental ABIEncoderV2;\r\n\r\nimport { PhotoNFTDataStorages } from \"./photo-nft-data/commons/PhotoNFTDataStorages.sol\";\r\nimport { PhotoNFT } from \"./PhotoNFT.sol\";\r\n\r\n\r\n/**\r\n * @notice - This is the storage contract for photoNFTs\r\n */\r\ncontract PhotoNFTData is PhotoNFTDataStorages {\r\n\r\n    address[] public photoAddresses;\r\n\r\n    constructor() public {}\r\n\r\n    /**\r\n     * @notice - Save metadata of a photoNFT\r\n     */\r\n    function saveMetadataOfPhotoNFT(\r\n        address[] memory _photoAddresses, \r\n        PhotoNFT _photoNFT, \r\n        string memory _photoNFTName, \r\n        string memory _photoNFTSymbol, \r\n        address _ownerAddress, \r\n        uint _photoPrice, \r\n        string memory _ipfsHashOfPhoto\r\n    ) public returns (bool) {\r\n        /// Save metadata of a photoNFT of photo\r\n        Photo memory photo = Photo({\r\n            photoNFT: _photoNFT,\r\n            photoNFTName: _photoNFTName,\r\n            photoNFTSymbol: _photoNFTSymbol,\r\n            ownerAddress: _ownerAddress,\r\n            photoPrice: _photoPrice,\r\n            ipfsHashOfPhoto: _ipfsHashOfPhoto,\r\n            status: \"Open\",\r\n            reputation: 0\r\n        });\r\n        photos.push(photo);\r\n\r\n        /// Update photoAddresses\r\n        photoAddresses = _photoAddresses;     \r\n    }\r\n\r\n    /**\r\n     * @notice - Update owner address of a photoNFT by transferring ownership\r\n     */\r\n    function updateOwnerOfPhotoNFT(PhotoNFT _photoNFT, address _newOwner) public returns (bool) {\r\n        /// Identify photo's index\r\n        uint photoIndex = getPhotoIndex(_photoNFT);\r\n\r\n        /// Update metadata of a photoNFT of photo\r\n        Photo storage photo = photos[photoIndex];\r\n        require (_newOwner != address(0), \"A new owner address should be not empty\");\r\n        photo.ownerAddress = _newOwner;  \r\n    }\r\n\r\n    /**\r\n     * @notice - Update status (\"Open\" or \"Cancelled\")\r\n     */\r\n    function updateStatus(PhotoNFT _photoNFT, string memory _newStatus) public returns (bool) {\r\n        /// Identify photo's index\r\n        uint photoIndex = getPhotoIndex(_photoNFT);\r\n\r\n        /// Update metadata of a photoNFT of photo\r\n        Photo storage photo = photos[photoIndex];\r\n        photo.status = _newStatus;  \r\n    }\r\n\r\n\r\n    ///-----------------\r\n    /// Getter methods\r\n    ///-----------------\r\n    function getPhoto(uint index) public view returns (Photo memory _photo) {\r\n        Photo memory photo = photos[index];\r\n        return photo;\r\n    }\r\n\r\n    function getPhotoIndex(PhotoNFT photoNFT) public view returns (uint _photoIndex) {\r\n        address PHOTO_NFT = address(photoNFT);\r\n\r\n        /// Identify member's index\r\n        uint photoIndex;\r\n        for (uint i=0; i < photoAddresses.length; i++) {\r\n            if (photoAddresses[i] == PHOTO_NFT) {\r\n                photoIndex = i;\r\n            }\r\n        }\r\n\r\n        return photoIndex;   \r\n    }\r\n\r\n    function getPhotoByNFTAddress(PhotoNFT photoNFT) public view returns (Photo memory _photo) {\r\n        address PHOTO_NFT = address(photoNFT);\r\n\r\n        /// Identify member's index\r\n        uint photoIndex;\r\n        for (uint i=0; i < photoAddresses.length; i++) {\r\n            if (photoAddresses[i] == PHOTO_NFT) {\r\n                photoIndex = i;\r\n            }\r\n        }\r\n\r\n        Photo memory photo = photos[photoIndex];\r\n        return photo;\r\n    }\r\n\r\n    function getAllPhotos() public view returns (Photo[] memory _photos) {\r\n        return photos;\r\n    }\r\n\r\n}\r\n",
  "sourcePath": "E:/general_work/guru/202104/nftphoto/NFT-based-photo-marketplace (2)/contracts/PhotoNFTData.sol",
  "compiler": {
    "name": "solc",
    "version": "0.5.16+commit.9c3226ce.Emscripten.clang"
  },
  "schemaVersion": "3.3.4",
  "updatedAt": "2021-05-04T03:16:15.943Z",
  "networkType": "ethereum",
  "devdoc": {
    "methods": {}
  },
  "userdoc": {
    "methods": {
      "getPhoto(uint256)": {
        "notice": "----------------- Getter methods -----------------"
      },
      "saveMetadataOfPhotoNFT(address[],address,string,string,address,uint256,string)": {
        "notice": "- Save metadata of a photoNFT"
      },
      "updateOwnerOfPhotoNFT(address,address)": {
        "notice": "- Update owner address of a photoNFT by transferring ownership"
      },
      "updateStatus(address,string)": {
        "notice": "- Update status (\"Open\" or \"Cancelled\")"
      }
    },
    "notice": "- This is the storage contract for photoNFTs"
  }
}