{
  "contractName": "TokenTimelock",
  "abi": [
    {
      "inputs": [
        {
          "internalType": "contract IERC20",
          "name": "token",
          "type": "address"
        },
        {
          "internalType": "address",
          "name": "beneficiary",
          "type": "address"
        },
        {
          "internalType": "uint256",
          "name": "releaseTime",
          "type": "uint256"
        }
      ],
      "payable": false,
      "stateMutability": "nonpayable",
      "type": "constructor"
    },
    {
      "constant": true,
      "inputs": [],
      "name": "token",
      "outputs": [
        {
          "internalType": "contract IERC20",
          "name": "",
          "type": "address"
        }
      ],
      "payable": false,
      "stateMutability": "view",
      "type": "function"
    },
    {
      "constant": true,
      "inputs": [],
      "name": "beneficiary",
      "outputs": [
        {
          "internalType": "address",
          "name": "",
          "type": "address"
        }
      ],
      "payable": false,
      "stateMutability": "view",
      "type": "function"
    },
    {
      "constant": true,
      "inputs": [],
      "name": "releaseTime",
      "outputs": [
        {
          "internalType": "uint256",
          "name": "",
          "type": "uint256"
        }
      ],
      "payable": false,
      "stateMutability": "view",
      "type": "function"
    },
    {
      "constant": false,
      "inputs": [],
      "name": "release",
      "outputs": [],
      "payable": false,
      "stateMutability": "nonpayable",
      "type": "function"
    }
  ],
  "bytecode": "0x608060405234801561001057600080fd5b506040516102df3803806102df8339818101604052606081101561003357600080fd5b508051602082015160409092015190919042811161005057600080fd5b600080546001600160a01b039485166001600160a01b031991821617909155600180549390941692169190911790915560025561024d806100926000396000f3fe608060405234801561001057600080fd5b506004361061004c5760003560e01c806338af3eed1461005157806386d1a69f14610075578063b91d40011461007f578063fc0c546a14610099575b600080fd5b6100596100a1565b604080516001600160a01b039092168252519081900360200190f35b61007d6100b0565b005b610087610169565b60408051918252519081900360200190f35b61005961016f565b6001546001600160a01b031690565b6002544210156100bf57600080fd5b60008054604080516370a0823160e01b815230600482015290516001600160a01b03909216916370a0823191602480820192602092909190829003018186803b15801561010b57600080fd5b505afa15801561011f573d6000803e3d6000fd5b505050506040513d602081101561013557600080fd5b505190508061014357600080fd5b600154600054610166916001600160a01b0391821691168363ffffffff61017e16565b50565b60025490565b6000546001600160a01b031690565b826001600160a01b031663a9059cbb83836040518363ffffffff1660e01b815260040180836001600160a01b03166001600160a01b0316815260200182815260200192505050602060405180830381600087803b1580156101de57600080fd5b505af11580156101f2573d6000803e3d6000fd5b505050506040513d602081101561020857600080fd5b505161021357600080fd5b50505056fea265627a7a723158204d4e5acb20dc290fdb520236e4882c17201e2f19db218adc73bfb4c0c72320ec64736f6c63430005100032",
  "source": "pragma solidity ^0.5.0;\r\n\r\nimport \"./SafeERC20.sol\";\r\n\r\n/**\r\n * @title TokenTimelock\r\n * @dev TokenTimelock is a token holder contract that will allow a\r\n * beneficiary to extract the tokens after a given release time\r\n */\r\ncontract TokenTimelock {\r\n    using SafeERC20 for IERC20;\r\n\r\n    // ERC20 basic token contract being held\r\n    IERC20 private _token;\r\n\r\n    // beneficiary of tokens after they are released\r\n    address private _beneficiary;\r\n\r\n    // timestamp when token release is enabled\r\n    uint256 private _releaseTime;\r\n\r\n    constructor (IERC20 token, address beneficiary, uint256 releaseTime) public {\r\n        // solhint-disable-next-line not-rely-on-time\r\n        require(releaseTime > block.timestamp);\r\n        _token = token;\r\n        _beneficiary = beneficiary;\r\n        _releaseTime = releaseTime;\r\n    }\r\n\r\n    /**\r\n     * @return the token being held.\r\n     */\r\n    function token() public view returns (IERC20) {\r\n        return _token;\r\n    }\r\n\r\n    /**\r\n     * @return the beneficiary of the tokens.\r\n     */\r\n    function beneficiary() public view returns (address) {\r\n        return _beneficiary;\r\n    }\r\n\r\n    /**\r\n     * @return the time when the tokens are released.\r\n     */\r\n    function releaseTime() public view returns (uint256) {\r\n        return _releaseTime;\r\n    }\r\n\r\n    /**\r\n     * @notice Transfers tokens held by timelock to beneficiary.\r\n     */\r\n    function release() public {\r\n        // solhint-disable-next-line not-rely-on-time\r\n        require(block.timestamp >= _releaseTime);\r\n\r\n        uint256 amount = _token.balanceOf(address(this));\r\n        require(amount > 0);\r\n\r\n        _token.safeTransfer(_beneficiary, amount);\r\n    }\r\n}\r\n",
  "sourcePath": "E:/general_work/guru/202104/nftphoto/NFT-based-photo-marketplace (2)/contracts/openzeppelin-solidity/contracts/token/ERC20/TokenTimelock.sol",
  "compiler": {
    "name": "solc",
    "version": "0.5.16+commit.9c3226ce.Emscripten.clang"
  },
  "schemaVersion": "3.3.4",
  "updatedAt": "2021-04-20T07:03:58.904Z",
  "devdoc": {
    "details": "TokenTimelock is a token holder contract that will allow a beneficiary to extract the tokens after a given release time",
    "methods": {
      "beneficiary()": {
        "return": "the beneficiary of the tokens."
      },
      "releaseTime()": {
        "return": "the time when the tokens are released."
      },
      "token()": {
        "return": "the token being held."
      }
    },
    "title": "TokenTimelock"
  },
  "userdoc": {
    "methods": {
      "release()": {
        "notice": "Transfers tokens held by timelock to beneficiary."
      }
    }
  }
}